{
  "contractName": "LockableNFT",
  "abi": [
    {
      "inputs": [
        {
          "internalType": "string",
          "name": "_name",
          "type": "string"
        },
        {
          "internalType": "string",
          "name": "_symbol",
          "type": "string"
        }
      ],
      "stateMutability": "nonpayable",
      "type": "constructor"
    },
    {
      "inputs": [
        {
          "internalType": "address",
          "name": "sender",
          "type": "address"
        },
        {
          "internalType": "uint256",
          "name": "tokenId",
          "type": "uint256"
        },
        {
          "internalType": "address",
          "name": "owner",
          "type": "address"
        }
      ],
      "name": "ERC721IncorrectOwner",
      "type": "error"
    },
    {
      "inputs": [
        {
          "internalType": "address",
          "name": "operator",
          "type": "address"
        },
        {
          "internalType": "uint256",
          "name": "tokenId",
          "type": "uint256"
        }
      ],
      "name": "ERC721InsufficientApproval",
      "type": "error"
    },
    {
      "inputs": [
        {
          "internalType": "address",
          "name": "approver",
          "type": "address"
        }
      ],
      "name": "ERC721InvalidApprover",
      "type": "error"
    },
    {
      "inputs": [
        {
          "internalType": "address",
          "name": "operator",
          "type": "address"
        }
      ],
      "name": "ERC721InvalidOperator",
      "type": "error"
    },
    {
      "inputs": [
        {
          "internalType": "address",
          "name": "owner",
          "type": "address"
        }
      ],
      "name": "ERC721InvalidOwner",
      "type": "error"
    },
    {
      "inputs": [
        {
          "internalType": "address",
          "name": "receiver",
          "type": "address"
        }
      ],
      "name": "ERC721InvalidReceiver",
      "type": "error"
    },
    {
      "inputs": [
        {
          "internalType": "address",
          "name": "sender",
          "type": "address"
        }
      ],
      "name": "ERC721InvalidSender",
      "type": "error"
    },
    {
      "inputs": [
        {
          "internalType": "uint256",
          "name": "tokenId",
          "type": "uint256"
        }
      ],
      "name": "ERC721NonexistentToken",
      "type": "error"
    },
    {
      "inputs": [
        {
          "internalType": "address",
          "name": "owner",
          "type": "address"
        }
      ],
      "name": "OwnableInvalidOwner",
      "type": "error"
    },
    {
      "inputs": [
        {
          "internalType": "address",
          "name": "account",
          "type": "address"
        }
      ],
      "name": "OwnableUnauthorizedAccount",
      "type": "error"
    },
    {
      "anonymous": false,
      "inputs": [
        {
          "indexed": true,
          "internalType": "address",
          "name": "owner",
          "type": "address"
        },
        {
          "indexed": true,
          "internalType": "address",
          "name": "approved",
          "type": "address"
        },
        {
          "indexed": true,
          "internalType": "uint256",
          "name": "tokenId",
          "type": "uint256"
        }
      ],
      "name": "Approval",
      "type": "event"
    },
    {
      "anonymous": false,
      "inputs": [
        {
          "indexed": true,
          "internalType": "address",
          "name": "owner",
          "type": "address"
        },
        {
          "indexed": true,
          "internalType": "address",
          "name": "operator",
          "type": "address"
        },
        {
          "indexed": false,
          "internalType": "bool",
          "name": "approved",
          "type": "bool"
        }
      ],
      "name": "ApprovalForAll",
      "type": "event"
    },
    {
      "anonymous": false,
      "inputs": [
        {
          "indexed": true,
          "internalType": "address",
          "name": "previousOwner",
          "type": "address"
        },
        {
          "indexed": true,
          "internalType": "address",
          "name": "newOwner",
          "type": "address"
        }
      ],
      "name": "OwnershipTransferred",
      "type": "event"
    },
    {
      "anonymous": false,
      "inputs": [
        {
          "indexed": true,
          "internalType": "address",
          "name": "from",
          "type": "address"
        },
        {
          "indexed": true,
          "internalType": "address",
          "name": "to",
          "type": "address"
        },
        {
          "indexed": true,
          "internalType": "uint256",
          "name": "tokenId",
          "type": "uint256"
        }
      ],
      "name": "Transfer",
      "type": "event"
    },
    {
      "inputs": [
        {
          "internalType": "address",
          "name": "to",
          "type": "address"
        },
        {
          "internalType": "uint256",
          "name": "tokenId",
          "type": "uint256"
        }
      ],
      "name": "approve",
      "outputs": [],
      "stateMutability": "nonpayable",
      "type": "function"
    },
    {
      "inputs": [
        {
          "internalType": "address",
          "name": "owner",
          "type": "address"
        }
      ],
      "name": "balanceOf",
      "outputs": [
        {
          "internalType": "uint256",
          "name": "",
          "type": "uint256"
        }
      ],
      "stateMutability": "view",
      "type": "function"
    },
    {
      "inputs": [
        {
          "internalType": "uint256",
          "name": "tokenId",
          "type": "uint256"
        }
      ],
      "name": "getApproved",
      "outputs": [
        {
          "internalType": "address",
          "name": "",
          "type": "address"
        }
      ],
      "stateMutability": "view",
      "type": "function"
    },
    {
      "inputs": [
        {
          "internalType": "address",
          "name": "owner",
          "type": "address"
        },
        {
          "internalType": "address",
          "name": "operator",
          "type": "address"
        }
      ],
      "name": "isApprovedForAll",
      "outputs": [
        {
          "internalType": "bool",
          "name": "",
          "type": "bool"
        }
      ],
      "stateMutability": "view",
      "type": "function"
    },
    {
      "inputs": [],
      "name": "name",
      "outputs": [
        {
          "internalType": "string",
          "name": "",
          "type": "string"
        }
      ],
      "stateMutability": "view",
      "type": "function"
    },
    {
      "inputs": [],
      "name": "owner",
      "outputs": [
        {
          "internalType": "address",
          "name": "",
          "type": "address"
        }
      ],
      "stateMutability": "view",
      "type": "function"
    },
    {
      "inputs": [
        {
          "internalType": "uint256",
          "name": "tokenId",
          "type": "uint256"
        }
      ],
      "name": "ownerOf",
      "outputs": [
        {
          "internalType": "address",
          "name": "",
          "type": "address"
        }
      ],
      "stateMutability": "view",
      "type": "function"
    },
    {
      "inputs": [],
      "name": "renounceOwnership",
      "outputs": [],
      "stateMutability": "nonpayable",
      "type": "function"
    },
    {
      "inputs": [
        {
          "internalType": "address",
          "name": "operator",
          "type": "address"
        },
        {
          "internalType": "bool",
          "name": "approved",
          "type": "bool"
        }
      ],
      "name": "setApprovalForAll",
      "outputs": [],
      "stateMutability": "nonpayable",
      "type": "function"
    },
    {
      "inputs": [
        {
          "internalType": "bytes4",
          "name": "interfaceId",
          "type": "bytes4"
        }
      ],
      "name": "supportsInterface",
      "outputs": [
        {
          "internalType": "bool",
          "name": "",
          "type": "bool"
        }
      ],
      "stateMutability": "view",
      "type": "function"
    },
    {
      "inputs": [],
      "name": "symbol",
      "outputs": [
        {
          "internalType": "string",
          "name": "",
          "type": "string"
        }
      ],
      "stateMutability": "view",
      "type": "function"
    },
    {
      "inputs": [
        {
          "internalType": "uint256",
          "name": "tokenId",
          "type": "uint256"
        }
      ],
      "name": "tokenURI",
      "outputs": [
        {
          "internalType": "string",
          "name": "",
          "type": "string"
        }
      ],
      "stateMutability": "view",
      "type": "function"
    },
    {
      "inputs": [
        {
          "internalType": "address",
          "name": "from",
          "type": "address"
        },
        {
          "internalType": "address",
          "name": "to",
          "type": "address"
        },
        {
          "internalType": "uint256",
          "name": "tokenId",
          "type": "uint256"
        }
      ],
      "name": "transferFrom",
      "outputs": [],
      "stateMutability": "nonpayable",
      "type": "function"
    },
    {
      "inputs": [
        {
          "internalType": "address",
          "name": "newOwner",
          "type": "address"
        }
      ],
      "name": "transferOwnership",
      "outputs": [],
      "stateMutability": "nonpayable",
      "type": "function"
    },
    {
      "inputs": [
        {
          "internalType": "uint256",
          "name": "tokenId",
          "type": "uint256"
        }
      ],
      "name": "isTokenLocked",
      "outputs": [
        {
          "internalType": "bool",
          "name": "",
          "type": "bool"
        }
      ],
      "stateMutability": "view",
      "type": "function"
    },
    {
      "inputs": [
        {
          "internalType": "uint256",
          "name": "tokenId",
          "type": "uint256"
        }
      ],
      "name": "lockToken",
      "outputs": [],
      "stateMutability": "nonpayable",
      "type": "function"
    },
    {
      "inputs": [
        {
          "internalType": "uint256",
          "name": "tokenId",
          "type": "uint256"
        }
      ],
      "name": "unlockToken",
      "outputs": [],
      "stateMutability": "nonpayable",
      "type": "function"
    },
    {
      "inputs": [
        {
          "internalType": "address",
          "name": "account",
          "type": "address"
        }
      ],
      "name": "whitelistAccount",
      "outputs": [],
      "stateMutability": "nonpayable",
      "type": "function"
    },
    {
      "inputs": [
        {
          "internalType": "uint256",
          "name": "tokenId",
          "type": "uint256"
        }
      ],
      "name": "claimAndUnlock",
      "outputs": [],
      "stateMutability": "nonpayable",
      "type": "function"
    },
    {
      "inputs": [
        {
          "internalType": "address",
          "name": "from",
          "type": "address"
        },
        {
          "internalType": "address",
          "name": "to",
          "type": "address"
        },
        {
          "internalType": "uint256",
          "name": "tokenId",
          "type": "uint256"
        }
      ],
      "name": "safeTransferFrom",
      "outputs": [],
      "stateMutability": "nonpayable",
      "type": "function"
    },
    {
      "inputs": [
        {
          "internalType": "address",
          "name": "from",
          "type": "address"
        },
        {
          "internalType": "address",
          "name": "to",
          "type": "address"
        },
        {
          "internalType": "uint256",
          "name": "tokenId",
          "type": "uint256"
        },
        {
          "internalType": "bytes",
          "name": "_data",
          "type": "bytes"
        }
      ],
      "name": "safeTransferFrom",
      "outputs": [],
      "stateMutability": "nonpayable",
      "type": "function"
    }
  ],
  "bytecode": "0x608060405234801562000010575f80fd5b5060405162002d9b38038062002d9b833981810160405281019062000036919062000333565b338282815f9081620000499190620005ed565b5080600190816200005b9190620005ed565b5050505f73ffffffffffffffffffffffffffffffffffffffff168173ffffffffffffffffffffffffffffffffffffffff1603620000d1575f6040517f1e4fbdf7000000000000000000000000000000000000000000000000000000008152600401620000c8919062000714565b60405180910390fd5b620000e281620000eb60201b60201c565b5050506200072f565b5f60065f9054906101000a900473ffffffffffffffffffffffffffffffffffffffff1690508160065f6101000a81548173ffffffffffffffffffffffffffffffffffffffff021916908373ffffffffffffffffffffffffffffffffffffffff1602179055508173ffffffffffffffffffffffffffffffffffffffff168173ffffffffffffffffffffffffffffffffffffffff167f8be0079c531659141344cd1fd0a4f28419497f9722a3daafe3b4186f6b6457e060405160405180910390a35050565b5f604051905090565b5f80fd5b5f80fd5b5f80fd5b5f80fd5b5f601f19601f8301169050919050565b7f4e487b71000000000000000000000000000000000000000000000000000000005f52604160045260245ffd5b6200020f82620001c7565b810181811067ffffffffffffffff82111715620002315762000230620001d7565b5b80604052505050565b5f62000245620001ae565b905062000253828262000204565b919050565b5f67ffffffffffffffff821115620002755762000274620001d7565b5b6200028082620001c7565b9050602081019050919050565b5f5b83811015620002ac5780820151818401526020810190506200028f565b5f8484015250505050565b5f620002cd620002c78462000258565b6200023a565b905082815260208101848484011115620002ec57620002eb620001c3565b5b620002f98482856200028d565b509392505050565b5f82601f830112620003185762000317620001bf565b5b81516200032a848260208601620002b7565b91505092915050565b5f80604083850312156200034c576200034b620001b7565b5b5f83015167ffffffffffffffff8111156200036c576200036b620001bb565b5b6200037a8582860162000301565b925050602083015167ffffffffffffffff8111156200039e576200039d620001bb565b5b620003ac8582860162000301565b9150509250929050565b5f81519050919050565b7f4e487b71000000000000000000000000000000000000000000000000000000005f52602260045260245ffd5b5f60028204905060018216806200040557607f821691505b6020821081036200041b576200041a620003c0565b5b50919050565b5f819050815f5260205f209050919050565b5f6020601f8301049050919050565b5f82821b905092915050565b5f600883026200047f7fffffffffffffffffffffffffffffffffffffffffffffffffffffffffffffffff8262000442565b6200048b868362000442565b95508019841693508086168417925050509392505050565b5f819050919050565b5f819050919050565b5f620004d5620004cf620004c984620004a3565b620004ac565b620004a3565b9050919050565b5f819050919050565b620004f083620004b5565b62000508620004ff82620004dc565b8484546200044e565b825550505050565b5f90565b6200051e62000510565b6200052b818484620004e5565b505050565b5b818110156200055257620005465f8262000514565b60018101905062000531565b5050565b601f821115620005a1576200056b8162000421565b620005768462000433565b8101602085101562000586578190505b6200059e620005958562000433565b83018262000530565b50505b505050565b5f82821c905092915050565b5f620005c35f1984600802620005a6565b1980831691505092915050565b5f620005dd8383620005b2565b9150826002028217905092915050565b620005f882620003b6565b67ffffffffffffffff811115620006145762000613620001d7565b5b620006208254620003ed565b6200062d82828562000556565b5f60209050601f83116001811462000663575f84156200064e578287015190505b6200065a8582620005d0565b865550620006c9565b601f198416620006738662000421565b5f5b828110156200069c5784890151825560018201915060208501945060208101905062000675565b86831015620006bc5784890151620006b8601f891682620005b2565b8355505b6001600288020188555050505b505050505050565b5f73ffffffffffffffffffffffffffffffffffffffff82169050919050565b5f620006fc82620006d1565b9050919050565b6200070e81620006f0565b82525050565b5f602082019050620007295f83018462000703565b92915050565b61265e806200073d5f395ff3fe608060405234801561000f575f80fd5b5060043610610135575f3560e01c8063715018a6116100b6578063a22cb4651161007a578063a22cb46514610335578063b88d4fde14610351578063c87b56dd1461036d578063dd2e0ac01461039d578063e985e9c5146103b9578063f2fde38b146103e957610135565b8063715018a6146102b757806380f20363146102c15780638da5cb5b146102dd5780638fc7b25b146102fb57806395d89b411461031757610135565b8063276a28a3116100fd578063276a28a3146101ef57806342842e0e1461021f5780636352211e1461023b57806363e0c2f81461026b57806370a082311461028757610135565b806301ffc9a71461013957806306fdde0314610169578063081812fc14610187578063095ea7b3146101b757806323b872dd146101d3575b5f80fd5b610153600480360381019061014e9190611d4f565b610405565b6040516101609190611d94565b60405180910390f35b6101716104e6565b60405161017e9190611e37565b60405180910390f35b6101a1600480360381019061019c9190611e8a565b610575565b6040516101ae9190611ef4565b60405180910390f35b6101d160048036038101906101cc9190611f37565b610590565b005b6101ed60048036038101906101e89190611f75565b6105a6565b005b61020960048036038101906102049190611e8a565b6106a5565b6040516102169190611d94565b60405180910390f35b61023960048036038101906102349190611f75565b6106cb565b005b61025560048036038101906102509190611e8a565b6106ea565b6040516102629190611ef4565b60405180910390f35b61028560048036038101906102809190611fc5565b6106fb565b005b6102a1600480360381019061029c9190611fc5565b61075b565b6040516102ae9190611fff565b60405180910390f35b6102bf610811565b005b6102db60048036038101906102d69190611e8a565b610824565b005b6102e56108a0565b6040516102f29190611ef4565b60405180910390f35b61031560048036038101906103109190611e8a565b6108c8565b005b61031f610a45565b60405161032c9190611e37565b60405180910390f35b61034f600480360381019061034a9190612042565b610ad5565b005b61036b600480360381019061036691906121ac565b610aeb565b005b61038760048036038101906103829190611e8a565b610b98565b6040516103949190611e37565b60405180910390f35b6103b760048036038101906103b29190611e8a565b610bfe565b005b6103d360048036038101906103ce919061222c565b610c79565b6040516103e09190611d94565b60405180910390f35b61040360048036038101906103fe9190611fc5565b610d07565b005b5f7f80ac58cd000000000000000000000000000000000000000000000000000000007bffffffffffffffffffffffffffffffffffffffffffffffffffffffff1916827bffffffffffffffffffffffffffffffffffffffffffffffffffffffff191614806104cf57507f5b5e139f000000000000000000000000000000000000000000000000000000007bffffffffffffffffffffffffffffffffffffffffffffffffffffffff1916827bffffffffffffffffffffffffffffffffffffffffffffffffffffffff1916145b806104df57506104de82610d8b565b5b9050919050565b60605f80546104f490612297565b80601f016020809104026020016040519081016040528092919081815260200182805461052090612297565b801561056b5780601f106105425761010080835404028352916020019161056b565b820191905f5260205f20905b81548152906001019060200180831161054e57829003601f168201915b5050505050905090565b5f61057f82610df4565b5061058982610e7a565b9050919050565b6105a2828261059d610eb3565b610eba565b5050565b5f73ffffffffffffffffffffffffffffffffffffffff168273ffffffffffffffffffffffffffffffffffffffff1603610616575f6040517f64a0ae9200000000000000000000000000000000000000000000000000000000815260040161060d9190611ef4565b60405180910390fd5b5f6106298383610624610eb3565b610ecc565b90508373ffffffffffffffffffffffffffffffffffffffff168173ffffffffffffffffffffffffffffffffffffffff161461069f578382826040517f64283d7b000000000000000000000000000000000000000000000000000000008152600401610696939291906122c7565b60405180910390fd5b50505050565b5f60075f8381526020019081526020015f205f9054906101000a900460ff169050919050565b6106e583838360405180602001604052805f815250610aeb565b505050565b5f6106f482610df4565b9050919050565b6107036110d7565b600160085f8373ffffffffffffffffffffffffffffffffffffffff1673ffffffffffffffffffffffffffffffffffffffff1681526020019081526020015f205f6101000a81548160ff02191690831515021790555050565b5f8073ffffffffffffffffffffffffffffffffffffffff168273ffffffffffffffffffffffffffffffffffffffff16036107cc575f6040517f89c62b640000000000000000000000000000000000000000000000000000000081526004016107c39190611ef4565b60405180910390fd5b60035f8373ffffffffffffffffffffffffffffffffffffffff1673ffffffffffffffffffffffffffffffffffffffff1681526020019081526020015f20549050919050565b6108196110d7565b6108225f61115e565b565b61082c6110d7565b61083581611221565b610874576040517f08c379a000000000000000000000000000000000000000000000000000000000815260040161086b90612346565b60405180910390fd5b600160075f8381526020019081526020015f205f6101000a81548160ff02191690831515021790555050565b5f60065f9054906101000a900473ffffffffffffffffffffffffffffffffffffffff16905090565b6108d181611221565b610910576040517f08c379a000000000000000000000000000000000000000000000000000000000815260040161090790612346565b60405180910390fd5b3073ffffffffffffffffffffffffffffffffffffffff16610930826106ea565b73ffffffffffffffffffffffffffffffffffffffff1614610986576040517f08c379a000000000000000000000000000000000000000000000000000000000815260040161097d906123ae565b60405180910390fd5b60085f3373ffffffffffffffffffffffffffffffffffffffff1673ffffffffffffffffffffffffffffffffffffffff1681526020019081526020015f205f9054906101000a900460ff16610a0f576040517f08c379a0000000000000000000000000000000000000000000000000000000008152600401610a0690612416565b60405180910390fd5b5f60075f8381526020019081526020015f205f6101000a81548160ff021916908315150217905550610a42303383611261565b50565b606060018054610a5490612297565b80601f0160208091040260200160405190810160405280929190818152602001828054610a8090612297565b8015610acb5780601f10610aa257610100808354040283529160200191610acb565b820191905f5260205f20905b815481529060010190602001808311610aae57829003601f168201915b5050505050905090565b610ae7610ae0610eb3565b8383611280565b5050565b60075f8381526020019081526020015f205f9054906101000a900460ff161580610b475750610b186108a0565b73ffffffffffffffffffffffffffffffffffffffff163373ffffffffffffffffffffffffffffffffffffffff16145b610b86576040517f08c379a0000000000000000000000000000000000000000000000000000000008152600401610b7d9061247e565b60405180910390fd5b610b92848484846113e9565b50505050565b6060610ba382610df4565b505f610bad611406565b90505f815111610bcb5760405180602001604052805f815250610bf6565b80610bd58461141c565b604051602001610be69291906124d6565b6040516020818303038152906040525b915050919050565b610c066110d7565b610c0f81611221565b610c4e576040517f08c379a0000000000000000000000000000000000000000000000000000000008152600401610c4590612346565b60405180910390fd5b5f60075f8381526020019081526020015f205f6101000a81548160ff02191690831515021790555050565b5f60055f8473ffffffffffffffffffffffffffffffffffffffff1673ffffffffffffffffffffffffffffffffffffffff1681526020019081526020015f205f8373ffffffffffffffffffffffffffffffffffffffff1673ffffffffffffffffffffffffffffffffffffffff1681526020019081526020015f205f9054906101000a900460ff16905092915050565b610d0f6110d7565b5f73ffffffffffffffffffffffffffffffffffffffff168173ffffffffffffffffffffffffffffffffffffffff1603610d7f575f6040517f1e4fbdf7000000000000000000000000000000000000000000000000000000008152600401610d769190611ef4565b60405180910390fd5b610d888161115e565b50565b5f7f01ffc9a7000000000000000000000000000000000000000000000000000000007bffffffffffffffffffffffffffffffffffffffffffffffffffffffff1916827bffffffffffffffffffffffffffffffffffffffffffffffffffffffff1916149050919050565b5f80610dff836114e6565b90505f73ffffffffffffffffffffffffffffffffffffffff168173ffffffffffffffffffffffffffffffffffffffff1603610e7157826040517f7e273289000000000000000000000000000000000000000000000000000000008152600401610e689190611fff565b60405180910390fd5b80915050919050565b5f60045f8381526020019081526020015f205f9054906101000a900473ffffffffffffffffffffffffffffffffffffffff169050919050565b5f33905090565b610ec7838383600161151f565b505050565b5f80610ed7846114e6565b90505f73ffffffffffffffffffffffffffffffffffffffff168373ffffffffffffffffffffffffffffffffffffffff1614610f1857610f178184866116de565b5b5f73ffffffffffffffffffffffffffffffffffffffff168173ffffffffffffffffffffffffffffffffffffffff1614610fa357610f575f855f8061151f565b600160035f8373ffffffffffffffffffffffffffffffffffffffff1673ffffffffffffffffffffffffffffffffffffffff1681526020019081526020015f205f82825403925050819055505b5f73ffffffffffffffffffffffffffffffffffffffff168573ffffffffffffffffffffffffffffffffffffffff161461102257600160035f8773ffffffffffffffffffffffffffffffffffffffff1673ffffffffffffffffffffffffffffffffffffffff1681526020019081526020015f205f82825401925050819055505b8460025f8681526020019081526020015f205f6101000a81548173ffffffffffffffffffffffffffffffffffffffff021916908373ffffffffffffffffffffffffffffffffffffffff160217905550838573ffffffffffffffffffffffffffffffffffffffff168273ffffffffffffffffffffffffffffffffffffffff167fddf252ad1be2c89b69c2b068fc378daa952ba7f163c4a11628f55a4df523b3ef60405160405180910390a4809150509392505050565b6110df610eb3565b73ffffffffffffffffffffffffffffffffffffffff166110fd6108a0565b73ffffffffffffffffffffffffffffffffffffffff161461115c57611120610eb3565b6040517f118cdaa70000000000000000000000000000000000000000000000000000000081526004016111539190611ef4565b60405180910390fd5b565b5f60065f9054906101000a900473ffffffffffffffffffffffffffffffffffffffff1690508160065f6101000a81548173ffffffffffffffffffffffffffffffffffffffff021916908373ffffffffffffffffffffffffffffffffffffffff1602179055508173ffffffffffffffffffffffffffffffffffffffff168173ffffffffffffffffffffffffffffffffffffffff167f8be0079c531659141344cd1fd0a4f28419497f9722a3daafe3b4186f6b6457e060405160405180910390a35050565b5f8073ffffffffffffffffffffffffffffffffffffffff16611242836106ea565b73ffffffffffffffffffffffffffffffffffffffff1614159050919050565b61127b83838360405180602001604052805f8152506117a1565b505050565b5f73ffffffffffffffffffffffffffffffffffffffff168273ffffffffffffffffffffffffffffffffffffffff16036112f057816040517f5b08ba180000000000000000000000000000000000000000000000000000000081526004016112e79190611ef4565b60405180910390fd5b8060055f8573ffffffffffffffffffffffffffffffffffffffff1673ffffffffffffffffffffffffffffffffffffffff1681526020019081526020015f205f8473ffffffffffffffffffffffffffffffffffffffff1673ffffffffffffffffffffffffffffffffffffffff1681526020019081526020015f205f6101000a81548160ff0219169083151502179055508173ffffffffffffffffffffffffffffffffffffffff168373ffffffffffffffffffffffffffffffffffffffff167f17307eab39ab6107e8899845ad3d59bd9653f200f220920489ca2b5937696c31836040516113dc9190611d94565b60405180910390a3505050565b6113f48484846105a6565b611400848484846117be565b50505050565b606060405180602001604052805f815250905090565b60605f600161142a84611970565b0190505f8167ffffffffffffffff81111561144857611447612088565b5b6040519080825280601f01601f19166020018201604052801561147a5781602001600182028036833780820191505090505b5090505f82602001820190505b6001156114db578080600190039150507f3031323334353637383961626364656600000000000000000000000000000000600a86061a8153600a85816114d0576114cf6124f9565b5b0494505f8503611487575b819350505050919050565b5f60025f8381526020019081526020015f205f9054906101000a900473ffffffffffffffffffffffffffffffffffffffff169050919050565b808061155757505f73ffffffffffffffffffffffffffffffffffffffff168273ffffffffffffffffffffffffffffffffffffffff1614155b15611689575f61156684610df4565b90505f73ffffffffffffffffffffffffffffffffffffffff168373ffffffffffffffffffffffffffffffffffffffff16141580156115d057508273ffffffffffffffffffffffffffffffffffffffff168173ffffffffffffffffffffffffffffffffffffffff1614155b80156115e357506115e18184610c79565b155b1561162557826040517fa9fbf51f00000000000000000000000000000000000000000000000000000000815260040161161c9190611ef4565b60405180910390fd5b811561168757838573ffffffffffffffffffffffffffffffffffffffff168273ffffffffffffffffffffffffffffffffffffffff167f8c5be1e5ebec7d5bd14f71427d1e84f3dd0314c0f7b2291e5b200ac8c7c3b92560405160405180910390a45b505b8360045f8581526020019081526020015f205f6101000a81548173ffffffffffffffffffffffffffffffffffffffff021916908373ffffffffffffffffffffffffffffffffffffffff16021790555050505050565b6116e9838383611ac1565b61179c575f73ffffffffffffffffffffffffffffffffffffffff168373ffffffffffffffffffffffffffffffffffffffff160361175d57806040517f7e2732890000000000000000000000000000000000000000000000000000000081526004016117549190611fff565b60405180910390fd5b81816040517f177e802f000000000000000000000000000000000000000000000000000000008152600401611793929190612526565b60405180910390fd5b505050565b6117ac848484611b81565b6117b8848484846117be565b50505050565b5f8373ffffffffffffffffffffffffffffffffffffffff163b111561196a578273ffffffffffffffffffffffffffffffffffffffff1663150b7a02611801610eb3565b8685856040518563ffffffff1660e01b8152600401611823949392919061259f565b6020604051808303815f875af192505050801561185e57506040513d601f19601f8201168201806040525081019061185b91906125fd565b60015b6118df573d805f811461188c576040519150601f19603f3d011682016040523d82523d5f602084013e611891565b606091505b505f8151036118d757836040517f64a0ae920000000000000000000000000000000000000000000000000000000081526004016118ce9190611ef4565b60405180910390fd5b805181602001fd5b63150b7a0260e01b7bffffffffffffffffffffffffffffffffffffffffffffffffffffffff1916817bffffffffffffffffffffffffffffffffffffffffffffffffffffffff19161461196857836040517f64a0ae9200000000000000000000000000000000000000000000000000000000815260040161195f9190611ef4565b60405180910390fd5b505b50505050565b5f805f90507a184f03e93ff9f4daa797ed6e38ed64bf6a1f01000000000000000083106119cc577a184f03e93ff9f4daa797ed6e38ed64bf6a1f01000000000000000083816119c2576119c16124f9565b5b0492506040810190505b6d04ee2d6d415b85acef81000000008310611a09576d04ee2d6d415b85acef810000000083816119ff576119fe6124f9565b5b0492506020810190505b662386f26fc100008310611a3857662386f26fc100008381611a2e57611a2d6124f9565b5b0492506010810190505b6305f5e1008310611a61576305f5e1008381611a5757611a566124f9565b5b0492506008810190505b6127108310611a86576127108381611a7c57611a7b6124f9565b5b0492506004810190505b60648310611aa95760648381611a9f57611a9e6124f9565b5b0492506002810190505b600a8310611ab8576001810190505b80915050919050565b5f8073ffffffffffffffffffffffffffffffffffffffff168373ffffffffffffffffffffffffffffffffffffffff1614158015611b7857508273ffffffffffffffffffffffffffffffffffffffff168473ffffffffffffffffffffffffffffffffffffffff161480611b395750611b388484610c79565b5b80611b7757508273ffffffffffffffffffffffffffffffffffffffff16611b5f83610e7a565b73ffffffffffffffffffffffffffffffffffffffff16145b5b90509392505050565b5f73ffffffffffffffffffffffffffffffffffffffff168273ffffffffffffffffffffffffffffffffffffffff1603611bf1575f6040517f64a0ae92000000000000000000000000000000000000000000000000000000008152600401611be89190611ef4565b60405180910390fd5b5f611bfd83835f610ecc565b90505f73ffffffffffffffffffffffffffffffffffffffff168173ffffffffffffffffffffffffffffffffffffffff1603611c6f57816040517f7e273289000000000000000000000000000000000000000000000000000000008152600401611c669190611fff565b60405180910390fd5b8373ffffffffffffffffffffffffffffffffffffffff168173ffffffffffffffffffffffffffffffffffffffff1614611ce3578382826040517f64283d7b000000000000000000000000000000000000000000000000000000008152600401611cda939291906122c7565b60405180910390fd5b50505050565b5f604051905090565b5f80fd5b5f80fd5b5f7fffffffff0000000000000000000000000000000000000000000000000000000082169050919050565b611d2e81611cfa565b8114611d38575f80fd5b50565b5f81359050611d4981611d25565b92915050565b5f60208284031215611d6457611d63611cf2565b5b5f611d7184828501611d3b565b91505092915050565b5f8115159050919050565b611d8e81611d7a565b82525050565b5f602082019050611da75f830184611d85565b92915050565b5f81519050919050565b5f82825260208201905092915050565b5f5b83811015611de4578082015181840152602081019050611dc9565b5f8484015250505050565b5f601f19601f8301169050919050565b5f611e0982611dad565b611e138185611db7565b9350611e23818560208601611dc7565b611e2c81611def565b840191505092915050565b5f6020820190508181035f830152611e4f8184611dff565b905092915050565b5f819050919050565b611e6981611e57565b8114611e73575f80fd5b50565b5f81359050611e8481611e60565b92915050565b5f60208284031215611e9f57611e9e611cf2565b5b5f611eac84828501611e76565b91505092915050565b5f73ffffffffffffffffffffffffffffffffffffffff82169050919050565b5f611ede82611eb5565b9050919050565b611eee81611ed4565b82525050565b5f602082019050611f075f830184611ee5565b92915050565b611f1681611ed4565b8114611f20575f80fd5b50565b5f81359050611f3181611f0d565b92915050565b5f8060408385031215611f4d57611f4c611cf2565b5b5f611f5a85828601611f23565b9250506020611f6b85828601611e76565b9150509250929050565b5f805f60608486031215611f8c57611f8b611cf2565b5b5f611f9986828701611f23565b9350506020611faa86828701611f23565b9250506040611fbb86828701611e76565b9150509250925092565b5f60208284031215611fda57611fd9611cf2565b5b5f611fe784828501611f23565b91505092915050565b611ff981611e57565b82525050565b5f6020820190506120125f830184611ff0565b92915050565b61202181611d7a565b811461202b575f80fd5b50565b5f8135905061203c81612018565b92915050565b5f806040838503121561205857612057611cf2565b5b5f61206585828601611f23565b92505060206120768582860161202e565b9150509250929050565b5f80fd5b5f80fd5b7f4e487b71000000000000000000000000000000000000000000000000000000005f52604160045260245ffd5b6120be82611def565b810181811067ffffffffffffffff821117156120dd576120dc612088565b5b80604052505050565b5f6120ef611ce9565b90506120fb82826120b5565b919050565b5f67ffffffffffffffff82111561211a57612119612088565b5b61212382611def565b9050602081019050919050565b828183375f83830152505050565b5f61215061214b84612100565b6120e6565b90508281526020810184848401111561216c5761216b612084565b5b612177848285612130565b509392505050565b5f82601f83011261219357612192612080565b5b81356121a384826020860161213e565b91505092915050565b5f805f80608085870312156121c4576121c3611cf2565b5b5f6121d187828801611f23565b94505060206121e287828801611f23565b93505060406121f387828801611e76565b925050606085013567ffffffffffffffff81111561221457612213611cf6565b5b6122208782880161217f565b91505092959194509250565b5f806040838503121561224257612241611cf2565b5b5f61224f85828601611f23565b925050602061226085828601611f23565b9150509250929050565b7f4e487b71000000000000000000000000000000000000000000000000000000005f52602260045260245ffd5b5f60028204905060018216806122ae57607f821691505b6020821081036122c1576122c061226a565b5b50919050565b5f6060820190506122da5f830186611ee5565b6122e76020830185611ff0565b6122f46040830184611ee5565b949350505050565b7f546f6b656e20646f6573206e6f742065786973740000000000000000000000005f82015250565b5f612330601483611db7565b915061233b826122fc565b602082019050919050565b5f6020820190508181035f83015261235d81612324565b9050919050565b7f546f6b656e206e6f74206f776e656420627920636f6e747261637400000000005f82015250565b5f612398601b83611db7565b91506123a382612364565b602082019050919050565b5f6020820190508181035f8301526123c58161238c565b9050919050565b7f4163636f756e74206e6f742077686974656c69737465640000000000000000005f82015250565b5f612400601783611db7565b915061240b826123cc565b602082019050919050565b5f6020820190508181035f83015261242d816123f4565b9050919050565b7f546f6b656e206973206c6f636b656400000000000000000000000000000000005f82015250565b5f612468600f83611db7565b915061247382612434565b602082019050919050565b5f6020820190508181035f8301526124958161245c565b9050919050565b5f81905092915050565b5f6124b082611dad565b6124ba818561249c565b93506124ca818560208601611dc7565b80840191505092915050565b5f6124e182856124a6565b91506124ed82846124a6565b91508190509392505050565b7f4e487b71000000000000000000000000000000000000000000000000000000005f52601260045260245ffd5b5f6040820190506125395f830185611ee5565b6125466020830184611ff0565b9392505050565b5f81519050919050565b5f82825260208201905092915050565b5f6125718261254d565b61257b8185612557565b935061258b818560208601611dc7565b61259481611def565b840191505092915050565b5f6080820190506125b25f830187611ee5565b6125bf6020830186611ee5565b6125cc6040830185611ff0565b81810360608301526125de8184612567565b905095945050505050565b5f815190506125f781611d25565b92915050565b5f6020828403121561261257612611611cf2565b5b5f61261f848285016125e9565b9150509291505056fea2646970667358221220966b14efc017f28f2da4a846284c1db98faf89fe6e3fad0ba0234637f22ed45c64736f6c63430008170033",
  "immutableReferences": {},
  "source": "// SPDX-License-Identifier: MIT\r\npragma solidity ^0.8.19;\r\n\r\nimport \"@openzeppelin/contracts/token/ERC721/ERC721.sol\";\r\nimport \"@openzeppelin/contracts/access/Ownable.sol\";\r\n\r\n/**\r\n * @title LockableNFT\r\n * @dev Extends ERC721 and Ownable contracts from OpenZeppelin. Provides functionality to lock and unlock tokens within an ERC721 collection.\r\n */\r\ncontract LockableNFT is ERC721, Ownable {\r\n    using Strings for uint256;\r\n\r\n    // Mapping to track the locked status of each token\r\n    mapping(uint256 => bool) private _isTokenLocked;\r\n\r\n    // Whitelisted addresses allowed to claim and unlock tokens\r\n    mapping(address => bool) private _whitelist;\r\n\r\n    /**\r\n     * @dev Constructor to initialize the LockableNFT contract.\r\n     * @param _name The name of the ERC721 token.\r\n     * @param _symbol The symbol of the ERC721 token.\r\n     */\r\n    constructor(string memory _name, string memory _symbol) ERC721(_name, _symbol) Ownable(msg.sender) {}\r\n\r\n    /**\r\n     * @dev Checks if a token is currently locked.\r\n     * @param tokenId The ID of the token to check.\r\n     * @return A boolean indicating whether the token is locked or not.\r\n     */\r\n    function isTokenLocked(uint256 tokenId) external view returns (bool) {\r\n        return _isTokenLocked[tokenId];\r\n    }\r\n\r\n    /**\r\n     * @dev Locks a specific token, restricting its transfer.\r\n     * @param tokenId The ID of the token to be locked.\r\n     */\r\n    function lockToken(uint256 tokenId) external onlyOwner {\r\n        require(_exists(tokenId), \"Token does not exist\");\r\n        _isTokenLocked[tokenId] = true;\r\n    }\r\n\r\n    /**\r\n     * @dev Unlocks a specific token, allowing its transfer.\r\n     * @param tokenId The ID of the token to be unlocked.\r\n     */\r\n    function unlockToken(uint256 tokenId) external onlyOwner {\r\n        require(_exists(tokenId), \"Token does not exist\");\r\n        _isTokenLocked[tokenId] = false;\r\n    }\r\n\r\n    /**\r\n     * @dev Whitelists an account to allow claiming and unlocking tokens.\r\n     * @param account The address to be whitelisted.\r\n     */\r\n    function whitelistAccount(address account) external onlyOwner {\r\n        _whitelist[account] = true;\r\n    }\r\n\r\n    /**\r\n     * @dev Allows a whitelisted account to claim and unlock a token held by the contract.\r\n     * @param tokenId The ID of the token to be claimed and unlocked.\r\n     */\r\n    function claimAndUnlock(uint256 tokenId) external {\r\n        require(_exists(tokenId), \"Token does not exist\");\r\n        require(ownerOf(tokenId) == address(this), \"Token not owned by contract\");\r\n        require(_whitelist[msg.sender], \"Account not whitelisted\");\r\n\r\n        _isTokenLocked[tokenId] = false;\r\n\r\n        _safeTransfer(address(this), msg.sender, tokenId);\r\n    }\r\n\r\n    /**\r\n     * @dev Overrides the safeTransferFrom function of ERC721 to restrict transfer of locked tokens.\r\n     * @param from The address transferring the token.\r\n     * @param to The address receiving the token.\r\n     * @param tokenId The ID of the token being transferred.\r\n     * @param _data Additional data to send along with the token transfer.\r\n     */\r\n    function safeTransferFrom(\r\n        address from,\r\n        address to,\r\n        uint256 tokenId,\r\n        bytes memory _data\r\n    ) public override {\r\n        require(!_isTokenLocked[tokenId] || msg.sender == owner(), \"Token is locked\");\r\n        super.safeTransferFrom(from, to, tokenId, _data);\r\n    }\r\n    \r\n    /**\r\n     * @dev Internal function to check if a token exists.\r\n     * @param tokenId The ID of the token to check.\r\n     * @return A boolean indicating whether the token exists or not.\r\n     */\r\n    function _exists(uint256 tokenId) internal view returns (bool) {\r\n        return ownerOf(tokenId) != address(0);\r\n    }\r\n}\r\n",
  "sourcePath": "C:\\Users\\adity\\OneDrive\\Documents\\GitHub\\LockableNFTProject\\contracts\\LockableNFT.sol",
  "compiler": {
    "name": "solc",
    "version": "0.8.23+commit.f704f362.Emscripten.clang"
  },
  "schemaVersion": "3.4.16",
  "updatedAt": "2024-01-09T16:17:04.992Z",
  "devdoc": {
    "details": "Extends ERC721 and Ownable contracts from OpenZeppelin. Provides functionality to lock and unlock tokens within an ERC721 collection.",
    "errors": {
      "ERC721IncorrectOwner(address,uint256,address)": [
        {
          "details": "Indicates an error related to the ownership over a particular token. Used in transfers.",
          "params": {
            "owner": "Address of the current owner of a token.",
            "sender": "Address whose tokens are being transferred.",
            "tokenId": "Identifier number of a token."
          }
        }
      ],
      "ERC721InsufficientApproval(address,uint256)": [
        {
          "details": "Indicates a failure with the `operator`s approval. Used in transfers.",
          "params": {
            "operator": "Address that may be allowed to operate on tokens without being their owner.",
            "tokenId": "Identifier number of a token."
          }
        }
      ],
      "ERC721InvalidApprover(address)": [
        {
          "details": "Indicates a failure with the `approver` of a token to be approved. Used in approvals.",
          "params": {
            "approver": "Address initiating an approval operation."
          }
        }
      ],
      "ERC721InvalidOperator(address)": [
        {
          "details": "Indicates a failure with the `operator` to be approved. Used in approvals.",
          "params": {
            "operator": "Address that may be allowed to operate on tokens without being their owner."
          }
        }
      ],
      "ERC721InvalidOwner(address)": [
        {
          "details": "Indicates that an address can't be an owner. For example, `address(0)` is a forbidden owner in EIP-20. Used in balance queries.",
          "params": {
            "owner": "Address of the current owner of a token."
          }
        }
      ],
      "ERC721InvalidReceiver(address)": [
        {
          "details": "Indicates a failure with the token `receiver`. Used in transfers.",
          "params": {
            "receiver": "Address to which tokens are being transferred."
          }
        }
      ],
      "ERC721InvalidSender(address)": [
        {
          "details": "Indicates a failure with the token `sender`. Used in transfers.",
          "params": {
            "sender": "Address whose tokens are being transferred."
          }
        }
      ],
      "ERC721NonexistentToken(uint256)": [
        {
          "details": "Indicates a `tokenId` whose `owner` is the zero address.",
          "params": {
            "tokenId": "Identifier number of a token."
          }
        }
      ],
      "OwnableInvalidOwner(address)": [
        {
          "details": "The owner is not a valid owner account. (eg. `address(0)`)"
        }
      ],
      "OwnableUnauthorizedAccount(address)": [
        {
          "details": "The caller account is not authorized to perform an operation."
        }
      ]
    },
    "events": {
      "Approval(address,address,uint256)": {
        "details": "Emitted when `owner` enables `approved` to manage the `tokenId` token."
      },
      "ApprovalForAll(address,address,bool)": {
        "details": "Emitted when `owner` enables or disables (`approved`) `operator` to manage all of its assets."
      },
      "Transfer(address,address,uint256)": {
        "details": "Emitted when `tokenId` token is transferred from `from` to `to`."
      }
    },
    "kind": "dev",
    "methods": {
      "approve(address,uint256)": {
        "details": "See {IERC721-approve}."
      },
      "balanceOf(address)": {
        "details": "See {IERC721-balanceOf}."
      },
      "claimAndUnlock(uint256)": {
        "details": "Allows a whitelisted account to claim and unlock a token held by the contract.",
        "params": {
          "tokenId": "The ID of the token to be claimed and unlocked."
        }
      },
      "constructor": {
        "details": "Constructor to initialize the LockableNFT contract.",
        "params": {
          "_name": "The name of the ERC721 token.",
          "_symbol": "The symbol of the ERC721 token."
        }
      },
      "getApproved(uint256)": {
        "details": "See {IERC721-getApproved}."
      },
      "isApprovedForAll(address,address)": {
        "details": "See {IERC721-isApprovedForAll}."
      },
      "isTokenLocked(uint256)": {
        "details": "Checks if a token is currently locked.",
        "params": {
          "tokenId": "The ID of the token to check."
        },
        "returns": {
          "_0": "A boolean indicating whether the token is locked or not."
        }
      },
      "lockToken(uint256)": {
        "details": "Locks a specific token, restricting its transfer.",
        "params": {
          "tokenId": "The ID of the token to be locked."
        }
      },
      "name()": {
        "details": "See {IERC721Metadata-name}."
      },
      "owner()": {
        "details": "Returns the address of the current owner."
      },
      "ownerOf(uint256)": {
        "details": "See {IERC721-ownerOf}."
      },
      "renounceOwnership()": {
        "details": "Leaves the contract without owner. It will not be possible to call `onlyOwner` functions. Can only be called by the current owner. NOTE: Renouncing ownership will leave the contract without an owner, thereby disabling any functionality that is only available to the owner."
      },
      "safeTransferFrom(address,address,uint256)": {
        "details": "See {IERC721-safeTransferFrom}."
      },
      "safeTransferFrom(address,address,uint256,bytes)": {
        "details": "Overrides the safeTransferFrom function of ERC721 to restrict transfer of locked tokens.",
        "params": {
          "_data": "Additional data to send along with the token transfer.",
          "from": "The address transferring the token.",
          "to": "The address receiving the token.",
          "tokenId": "The ID of the token being transferred."
        }
      },
      "setApprovalForAll(address,bool)": {
        "details": "See {IERC721-setApprovalForAll}."
      },
      "supportsInterface(bytes4)": {
        "details": "See {IERC165-supportsInterface}."
      },
      "symbol()": {
        "details": "See {IERC721Metadata-symbol}."
      },
      "tokenURI(uint256)": {
        "details": "See {IERC721Metadata-tokenURI}."
      },
      "transferFrom(address,address,uint256)": {
        "details": "See {IERC721-transferFrom}."
      },
      "transferOwnership(address)": {
        "details": "Transfers ownership of the contract to a new account (`newOwner`). Can only be called by the current owner."
      },
      "unlockToken(uint256)": {
        "details": "Unlocks a specific token, allowing its transfer.",
        "params": {
          "tokenId": "The ID of the token to be unlocked."
        }
      },
      "whitelistAccount(address)": {
        "details": "Whitelists an account to allow claiming and unlocking tokens.",
        "params": {
          "account": "The address to be whitelisted."
        }
      }
    },
    "title": "LockableNFT",
    "version": 1
  },
  "userdoc": {
    "kind": "user",
    "methods": {},
    "version": 1
  }
}